{
  "contractName": "CentralStorage",
  "abi": [
    {
      "constant": true,
      "inputs": [
        {
          "name": "",
          "type": "uint256"
        }
      ],
      "name": "publications",
      "outputs": [
        {
          "name": "editor",
          "type": "address"
        },
        {
          "name": "title",
          "type": "string"
        },
        {
          "name": "description",
          "type": "string"
        },
        {
          "name": "creationHash",
          "type": "string"
        },
        {
          "name": "category",
          "type": "string"
        },
        {
          "name": "timestamp",
          "type": "uint256"
        }
      ],
      "payable": false,
      "stateMutability": "view",
      "type": "function",
      "signature": "0x1fd5bbab"
    },
    {
      "constant": true,
      "inputs": [
        {
          "name": "",
          "type": "uint256"
        },
        {
          "name": "",
          "type": "uint256"
        }
      ],
      "name": "files",
      "outputs": [
        {
          "name": "hash",
          "type": "string"
        },
        {
          "name": "title",
          "type": "string"
        },
        {
          "name": "timestamp",
          "type": "uint256"
        },
        {
          "name": "description",
          "type": "string"
        }
      ],
      "payable": false,
      "stateMutability": "view",
      "type": "function",
      "signature": "0xf8c2d8db"
    },
    {
      "inputs": [],
      "payable": false,
      "stateMutability": "nonpayable",
      "type": "constructor",
      "signature": "constructor"
    },
    {
      "anonymous": false,
      "inputs": [
        {
          "indexed": true,
          "name": "editor",
          "type": "address"
        },
        {
          "indexed": false,
          "name": "timestamp",
          "type": "uint256"
        },
        {
          "indexed": false,
          "name": "id",
          "type": "uint256"
        }
      ],
      "name": "publicationAdded",
      "type": "event",
      "signature": "0x23febb38b074aa2fb6484b10ae55710cd3a6ea7303c7110099ce39b8a511a163"
    },
    {
      "constant": false,
      "inputs": [
        {
          "name": "title",
          "type": "string"
        },
        {
          "name": "description",
          "type": "string"
        },
        {
          "name": "hash",
          "type": "string"
        },
        {
          "name": "category",
          "type": "string"
        }
      ],
      "name": "publish",
      "outputs": [
        {
          "name": "",
          "type": "uint256"
        }
      ],
      "payable": false,
      "stateMutability": "nonpayable",
      "type": "function",
      "signature": "0x1da879d8"
    },
    {
      "constant": false,
      "inputs": [
        {
          "name": "publicationId",
          "type": "uint256"
        },
        {
          "name": "fileTitle",
          "type": "string"
        },
        {
          "name": "fileHash",
          "type": "string"
        },
        {
          "name": "description",
          "type": "string"
        }
      ],
      "name": "addFiles",
      "outputs": [],
      "payable": false,
      "stateMutability": "nonpayable",
      "type": "function",
      "signature": "0xfd24406e"
    },
    {
      "constant": true,
      "inputs": [
        {
          "name": "id",
          "type": "uint256"
        }
      ],
      "name": "getPublication",
      "outputs": [
        {
          "name": "",
          "type": "address"
        },
        {
          "name": "",
          "type": "string"
        },
        {
          "name": "",
          "type": "string"
        },
        {
          "name": "",
          "type": "string"
        },
        {
          "name": "",
          "type": "uint256"
        },
        {
          "name": "",
          "type": "uint256"
        },
        {
          "name": "",
          "type": "string"
        }
      ],
      "payable": false,
      "stateMutability": "view",
      "type": "function",
      "signature": "0xa564e83c"
    },
    {
      "constant": true,
      "inputs": [],
      "name": "getNumberOfPublications",
      "outputs": [
        {
          "name": "",
          "type": "uint256"
        }
      ],
      "payable": false,
      "stateMutability": "view",
      "type": "function",
      "signature": "0x0815d6b7"
    },
    {
      "constant": true,
      "inputs": [
        {
          "name": "publicationId",
          "type": "uint256"
        },
        {
          "name": "fileId",
          "type": "uint256"
        }
      ],
      "name": "getFile",
      "outputs": [
        {
          "name": "",
          "type": "string"
        },
        {
          "name": "",
          "type": "string"
        },
        {
          "name": "",
          "type": "uint256"
        },
        {
          "name": "",
          "type": "string"
        }
      ],
      "payable": false,
      "stateMutability": "view",
      "type": "function",
      "signature": "0xa0e41a77"
    },
    {
      "constant": false,
      "inputs": [
        {
          "name": "newAdmin",
          "type": "address"
        }
      ],
      "name": "addAdmin",
      "outputs": [],
      "payable": false,
      "stateMutability": "nonpayable",
      "type": "function",
      "signature": "0x70480275"
    },
    {
      "constant": false,
      "inputs": [
        {
          "name": "newEditor",
          "type": "address"
        }
      ],
      "name": "addEditor",
      "outputs": [],
      "payable": false,
      "stateMutability": "nonpayable",
      "type": "function",
      "signature": "0xe5975bdc"
    },
    {
      "constant": true,
      "inputs": [
        {
          "name": "_address",
          "type": "address"
        }
      ],
      "name": "isEditor",
      "outputs": [
        {
          "name": "",
          "type": "bool"
        }
      ],
      "payable": false,
      "stateMutability": "view",
      "type": "function",
      "signature": "0xa0748154"
    },
    {
      "constant": true,
      "inputs": [
        {
          "name": "a",
          "type": "address"
        }
      ],
      "name": "isAdmin",
      "outputs": [
        {
          "name": "",
          "type": "bool"
        }
      ],
      "payable": false,
      "stateMutability": "view",
      "type": "function",
      "signature": "0x24d7806c"
    },
    {
      "constant": false,
      "inputs": [
        {
          "name": "editor",
          "type": "address"
        }
      ],
      "name": "invalidateEditor",
      "outputs": [],
      "payable": false,
      "stateMutability": "nonpayable",
      "type": "function",
      "signature": "0x2596b28d"
    }
  ],
  "bytecode": "0x608060405234801561001057600080fd5b5060016000803373ffffffffffffffffffffffffffffffffffffffff1673ffffffffffffffffffffffffffffffffffffffff16815260200190815260200160002060006101000a81548160ff02191690831515021790555060018060003373ffffffffffffffffffffffffffffffffffffffff1673ffffffffffffffffffffffffffffffffffffffff16815260200190815260200160002060006101000a81548160ff021916908315150217905550612537806100ce6000396000f3fe6080604052600436106100ba576000357c0100000000000000000000000000000000000000000000000000000000900463ffffffff1680630815d6b7146100bf5780631da879d8146100ea5780631fd5bbab1461028357806324d7806c146104b55780632596b28d1461051e578063704802751461056f578063a0748154146105c0578063a0e41a7714610629578063a564e83c146107c6578063e5975bdc146109ff578063f8c2d8db14610a50578063fd24406e14610bed575b600080fd5b3480156100cb57600080fd5b506100d4610d27565b6040518082815260200191505060405180910390f35b3480156100f657600080fd5b5061026d6004803603608081101561010d57600080fd5b810190808035906020019064010000000081111561012a57600080fd5b82018360208201111561013c57600080fd5b8035906020019184600183028401116401000000008311171561015e57600080fd5b90919293919293908035906020019064010000000081111561017f57600080fd5b82018360208201111561019157600080fd5b803590602001918460018302840111640100000000831117156101b357600080fd5b9091929391929390803590602001906401000000008111156101d457600080fd5b8201836020820111156101e657600080fd5b8035906020019184600183028401116401000000008311171561020857600080fd5b90919293919293908035906020019064010000000081111561022957600080fd5b82018360208201111561023b57600080fd5b8035906020019184600183028401116401000000008311171561025d57600080fd5b9091929391929390505050610d34565b6040518082815260200191505060405180910390f35b34801561028f57600080fd5b506102bc600480360360208110156102a657600080fd5b8101908080359060200190929190505050611107565b604051808773ffffffffffffffffffffffffffffffffffffffff1673ffffffffffffffffffffffffffffffffffffffff1681526020018060200180602001806020018060200186815260200185810385528a818151815260200191508051906020019080838360005b83811015610340578082015181840152602081019050610325565b50505050905090810190601f16801561036d5780820380516001836020036101000a031916815260200191505b50858103845289818151815260200191508051906020019080838360005b838110156103a657808201518184015260208101905061038b565b50505050905090810190601f1680156103d35780820380516001836020036101000a031916815260200191505b50858103835288818151815260200191508051906020019080838360005b8381101561040c5780820151818401526020810190506103f1565b50505050905090810190601f1680156104395780820380516001836020036101000a031916815260200191505b50858103825287818151815260200191508051906020019080838360005b83811015610472578082015181840152602081019050610457565b50505050905090810190601f16801561049f5780820380516001836020036101000a031916815260200191505b509a505050505050505050505060405180910390f35b3480156104c157600080fd5b50610504600480360360208110156104d857600080fd5b81019080803573ffffffffffffffffffffffffffffffffffffffff1690602001909291905050506113d2565b604051808215151515815260200191505060405180910390f35b34801561052a57600080fd5b5061056d6004803603602081101561054157600080fd5b81019080803573ffffffffffffffffffffffffffffffffffffffff169060200190929190505050611427565b005b34801561057b57600080fd5b506105be6004803603602081101561059257600080fd5b81019080803573ffffffffffffffffffffffffffffffffffffffff1690602001909291905050506115c0565b005b3480156105cc57600080fd5b5061060f600480360360208110156105e357600080fd5b81019080803573ffffffffffffffffffffffffffffffffffffffff169060200190929190505050611700565b604051808215151515815260200191505060405180910390f35b34801561063557600080fd5b5061066c6004803603604081101561064c57600080fd5b810190808035906020019092919080359060200190929190505050611756565b60405180806020018060200185815260200180602001848103845288818151815260200191508051906020019080838360005b838110156106ba57808201518184015260208101905061069f565b50505050905090810190601f1680156106e75780820380516001836020036101000a031916815260200191505b50848103835287818151815260200191508051906020019080838360005b83811015610720578082015181840152602081019050610705565b50505050905090810190601f16801561074d5780820380516001836020036101000a031916815260200191505b50848103825285818151815260200191508051906020019080838360005b8381101561078657808201518184015260208101905061076b565b50505050905090810190601f1680156107b35780820380516001836020036101000a031916815260200191505b5097505050505050505060405180910390f35b3480156107d257600080fd5b506107ff600480360360208110156107e957600080fd5b8101908080359060200190929190505050611a07565b604051808873ffffffffffffffffffffffffffffffffffffffff1673ffffffffffffffffffffffffffffffffffffffff1681526020018060200180602001806020018781526020018681526020018060200185810385528b818151815260200191508051906020019080838360005b8381101561088957808201518184015260208101905061086e565b50505050905090810190601f1680156108b65780820380516001836020036101000a031916815260200191505b5085810384528a818151815260200191508051906020019080838360005b838110156108ef5780820151818401526020810190506108d4565b50505050905090810190601f16801561091c5780820380516001836020036101000a031916815260200191505b50858103835289818151815260200191508051906020019080838360005b8381101561095557808201518184015260208101905061093a565b50505050905090810190601f1680156109825780820380516001836020036101000a031916815260200191505b50858103825286818151815260200191508051906020019080838360005b838110156109bb5780820151818401526020810190506109a0565b50505050905090810190601f1680156109e85780820380516001836020036101000a031916815260200191505b509b50505050505050505050505060405180910390f35b348015610a0b57600080fd5b50610a4e60048036036020811015610a2257600080fd5b81019080803573ffffffffffffffffffffffffffffffffffffffff169060200190929190505050611d95565b005b348015610a5c57600080fd5b50610a9360048036036040811015610a7357600080fd5b810190808035906020019092919080359060200190929190505050611ed5565b60405180806020018060200185815260200180602001848103845288818151815260200191508051906020019080838360005b83811015610ae1578082015181840152602081019050610ac6565b50505050905090810190601f168015610b0e5780820380516001836020036101000a031916815260200191505b50848103835287818151815260200191508051906020019080838360005b83811015610b47578082015181840152602081019050610b2c565b50505050905090810190601f168015610b745780820380516001836020036101000a031916815260200191505b50848103825285818151815260200191508051906020019080838360005b83811015610bad578082015181840152602081019050610b92565b50505050905090810190601f168015610bda5780820380516001836020036101000a031916815260200191505b5097505050505050505060405180910390f35b348015610bf957600080fd5b50610d2560048036036080811015610c1057600080fd5b810190808035906020019092919080359060200190640100000000811115610c3757600080fd5b820183602082011115610c4957600080fd5b80359060200191846001830284011164010000000083111715610c6b57600080fd5b909192939192939080359060200190640100000000811115610c8c57600080fd5b820183602082011115610c9e57600080fd5b80359060200191846001830284011164010000000083111715610cc057600080fd5b909192939192939080359060200190640100000000811115610ce157600080fd5b820183602082011115610cf357600080fd5b80359060200191846001830284011164010000000083111715610d1557600080fd5b90919293919293905050506120e9565b005b6000600480549050905090565b6000600160003373ffffffffffffffffffffffffffffffffffffffff1673ffffffffffffffffffffffffffffffffffffffff16815260200190815260200160002060009054906101000a900460ff161515610e1d576040517f08c379a00000000000000000000000000000000000000000000000000000000081526004018080602001828103825260328152602001807f5468657265206973206e6f20617574686f72697a6174696f6e20746f2061636381526020017f6573732074686973207265736f757263652e000000000000000000000000000081525060400191505060405180910390fd5b610e256123f0565b89898080601f016020809104026020016040519081016040528093929190818152602001838380828437600081840152601f19601f82011690508083019250505050505050816020018190525087878080601f016020809104026020016040519081016040528093929190818152602001838380828437600081840152601f19601f82011690508083019250505050505050816040018190525033816000019073ffffffffffffffffffffffffffffffffffffffff16908173ffffffffffffffffffffffffffffffffffffffff1681525050428160a001818152505085858080601f016020809104026020016040519081016040528093929190818152602001838380828437600081840152601f19601f82011690508083019250505050505050816060018190525083838080601f016020809104026020016040519081016040528093929190818152602001838380828437600081840152601f19601f8201169050808301925050505050505081608001819052506004819080600181540180825580915050906001820390600052602060002090600602016000909192909190915060008201518160000160006101000a81548173ffffffffffffffffffffffffffffffffffffffff021916908373ffffffffffffffffffffffffffffffffffffffff160217905550602082015181600101908051906020019061102c92919061243d565b50604082015181600201908051906020019061104992919061243d565b50606082015181600301908051906020019061106692919061243d565b50608082015181600401908051906020019061108392919061243d565b5060a082015181600501555050503373ffffffffffffffffffffffffffffffffffffffff167f23febb38b074aa2fb6484b10ae55710cd3a6ea7303c7110099ce39b8a511a16342600160048054905003604051808381526020018281526020019250505060405180910390a260016004805490500391505098975050505050505050565b60048181548110151561111657fe5b90600052602060002090600602016000915090508060000160009054906101000a900473ffffffffffffffffffffffffffffffffffffffff1690806001018054600181600116156101000203166002900480601f0160208091040260200160405190810160405280929190818152602001828054600181600116156101000203166002900480156111e85780601f106111bd576101008083540402835291602001916111e8565b820191906000526020600020905b8154815290600101906020018083116111cb57829003601f168201915b505050505090806002018054600181600116156101000203166002900480601f0160208091040260200160405190810160405280929190818152602001828054600181600116156101000203166002900480156112865780601f1061125b57610100808354040283529160200191611286565b820191906000526020600020905b81548152906001019060200180831161126957829003601f168201915b505050505090806003018054600181600116156101000203166002900480601f0160208091040260200160405190810160405280929190818152602001828054600181600116156101000203166002900480156113245780601f106112f957610100808354040283529160200191611324565b820191906000526020600020905b81548152906001019060200180831161130757829003601f168201915b505050505090806004018054600181600116156101000203166002900480601f0160208091040260200160405190810160405280929190818152602001828054600181600116156101000203166002900480156113c25780601f10611397576101008083540402835291602001916113c2565b820191906000526020600020905b8154815290600101906020018083116113a557829003601f168201915b5050505050908060050154905086565b60008060008373ffffffffffffffffffffffffffffffffffffffff1673ffffffffffffffffffffffffffffffffffffffff16815260200190815260200160002060009054906101000a900460ff169050919050565b6000803373ffffffffffffffffffffffffffffffffffffffff1673ffffffffffffffffffffffffffffffffffffffff16815260200190815260200160002060009054906101000a900460ff16151561150d576040517f08c379a00000000000000000000000000000000000000000000000000000000081526004018080602001828103825260328152602001807f5468657265206973206e6f20617574686f72697a6174696f6e20746f2061636381526020017f6573732074686973207265736f757263652e000000000000000000000000000081525060400191505060405180910390fd5b6000600160008373ffffffffffffffffffffffffffffffffffffffff1673ffffffffffffffffffffffffffffffffffffffff16815260200190815260200160002060006101000a81548160ff0219169083151502179055506001600260008373ffffffffffffffffffffffffffffffffffffffff1673ffffffffffffffffffffffffffffffffffffffff16815260200190815260200160002060006101000a81548160ff02191690831515021790555050565b6000803373ffffffffffffffffffffffffffffffffffffffff1673ffffffffffffffffffffffffffffffffffffffff16815260200190815260200160002060009054906101000a900460ff1615156116a6576040517f08c379a00000000000000000000000000000000000000000000000000000000081526004018080602001828103825260328152602001807f5468657265206973206e6f20617574686f72697a6174696f6e20746f2061636381526020017f6573732074686973207265736f757263652e000000000000000000000000000081525060400191505060405180910390fd5b60016000808373ffffffffffffffffffffffffffffffffffffffff1673ffffffffffffffffffffffffffffffffffffffff16815260200190815260200160002060006101000a81548160ff02191690831515021790555050565b6000600160008373ffffffffffffffffffffffffffffffffffffffff1673ffffffffffffffffffffffffffffffffffffffff16815260200190815260200160002060009054906101000a900460ff169050919050565b60608060006060600360008781526020019081526020016000208581548110151561177d57fe5b906000526020600020906004020160000160036000888152602001908152602001600020868154811015156117ae57fe5b906000526020600020906004020160010160036000898152602001908152602001600020878154811015156117df57fe5b906000526020600020906004020160020154600360008a81526020019081526020016000208881548110151561181157fe5b9060005260206000209060040201600301838054600181600116156101000203166002900480601f0160208091040260200160405190810160405280929190818152602001828054600181600116156101000203166002900480156118b75780601f1061188c576101008083540402835291602001916118b7565b820191906000526020600020905b81548152906001019060200180831161189a57829003601f168201915b50505050509350828054600181600116156101000203166002900480601f0160208091040260200160405190810160405280929190818152602001828054600181600116156101000203166002900480156119535780601f1061192857610100808354040283529160200191611953565b820191906000526020600020905b81548152906001019060200180831161193657829003601f168201915b50505050509250808054600181600116156101000203166002900480601f0160208091040260200160405190810160405280929190818152602001828054600181600116156101000203166002900480156119ef5780601f106119c4576101008083540402835291602001916119ef565b820191906000526020600020905b8154815290600101906020018083116119d257829003601f168201915b50505050509050935093509350935092959194509250565b600060608060606000806060600488815481101515611a2257fe5b906000526020600020906006020160000160009054906101000a900473ffffffffffffffffffffffffffffffffffffffff16600489815481101515611a6357fe5b906000526020600020906006020160010160048a815481101515611a8357fe5b906000526020600020906006020160020160048b815481101515611aa357fe5b906000526020600020906006020160030160048c815481101515611ac357fe5b906000526020600020906006020160050154600360008e81526020019081526020016000208054905060048e815481101515611afb57fe5b9060005260206000209060060201600401858054600181600116156101000203166002900480601f016020809104026020016040519081016040528092919081815260200182805460018160011615610100020316600290048015611ba15780601f10611b7657610100808354040283529160200191611ba1565b820191906000526020600020905b815481529060010190602001808311611b8457829003601f168201915b50505050509550848054600181600116156101000203166002900480601f016020809104026020016040519081016040528092919081815260200182805460018160011615610100020316600290048015611c3d5780601f10611c1257610100808354040283529160200191611c3d565b820191906000526020600020905b815481529060010190602001808311611c2057829003601f168201915b50505050509450838054600181600116156101000203166002900480601f016020809104026020016040519081016040528092919081815260200182805460018160011615610100020316600290048015611cd95780601f10611cae57610100808354040283529160200191611cd9565b820191906000526020600020905b815481529060010190602001808311611cbc57829003601f168201915b50505050509350808054600181600116156101000203166002900480601f016020809104026020016040519081016040528092919081815260200182805460018160011615610100020316600290048015611d755780601f10611d4a57610100808354040283529160200191611d75565b820191906000526020600020905b815481529060010190602001808311611d5857829003601f168201915b505050505090509650965096509650965096509650919395979092949650565b6000803373ffffffffffffffffffffffffffffffffffffffff1673ffffffffffffffffffffffffffffffffffffffff16815260200190815260200160002060009054906101000a900460ff161515611e7b576040517f08c379a00000000000000000000000000000000000000000000000000000000081526004018080602001828103825260328152602001807f5468657265206973206e6f20617574686f72697a6174696f6e20746f2061636381526020017f6573732074686973207265736f757263652e000000000000000000000000000081525060400191505060405180910390fd5b60018060008373ffffffffffffffffffffffffffffffffffffffff1673ffffffffffffffffffffffffffffffffffffffff16815260200190815260200160002060006101000a81548160ff02191690831515021790555050565b600360205281600052604060002081815481101515611ef057fe5b906000526020600020906004020160009150915050806000018054600181600116156101000203166002900480601f016020809104026020016040519081016040528092919081815260200182805460018160011615610100020316600290048015611f9d5780601f10611f7257610100808354040283529160200191611f9d565b820191906000526020600020905b815481529060010190602001808311611f8057829003601f168201915b505050505090806001018054600181600116156101000203166002900480601f01602080910402602001604051908101604052809291908181526020018280546001816001161561010002031660029004801561203b5780601f106120105761010080835404028352916020019161203b565b820191906000526020600020905b81548152906001019060200180831161201e57829003601f168201915b505050505090806002015490806003018054600181600116156101000203166002900480601f0160208091040260200160405190810160405280929190818152602001828054600181600116156101000203166002900480156120df5780601f106120b4576101008083540402835291602001916120df565b820191906000526020600020905b8154815290600101906020018083116120c257829003601f168201915b5050505050905084565b600160003373ffffffffffffffffffffffffffffffffffffffff1673ffffffffffffffffffffffffffffffffffffffff16815260200190815260200160002060009054906101000a900460ff1615156121d0576040517f08c379a00000000000000000000000000000000000000000000000000000000081526004018080602001828103825260328152602001807f5468657265206973206e6f20617574686f72697a6174696f6e20746f2061636381526020017f6573732074686973207265736f757263652e000000000000000000000000000081525060400191505060405180910390fd5b3373ffffffffffffffffffffffffffffffffffffffff166004888154811015156121f657fe5b906000526020600020906006020160000160009054906101000a900473ffffffffffffffffffffffffffffffffffffffff1673ffffffffffffffffffffffffffffffffffffffff1614151561224a57600080fd5b6122526124bd565b86868080601f016020809104026020016040519081016040528093929190818152602001838380828437600081840152601f19601f82011690508083019250505050505050816020018190525084848080601f016020809104026020016040519081016040528093929190818152602001838380828437600081840152601f19601f8201169050808301925050505050505081600001819052504281604001818152505082828080601f016020809104026020016040519081016040528093929190818152602001838380828437600081840152601f19601f820116905080830192505050505050508160600181905250600360008981526020019081526020016000208190806001815401808255809150509060018203906000526020600020906004020160009091929091909150600082015181600001908051906020019061239e92919061243d565b5060208201518160010190805190602001906123bb92919061243d565b506040820151816002015560608201518160030190805190602001906123e292919061243d565b505050505050505050505050565b60c060405190810160405280600073ffffffffffffffffffffffffffffffffffffffff16815260200160608152602001606081526020016060815260200160608152602001600081525090565b828054600181600116156101000203166002900490600052602060002090601f016020900481019282601f1061247e57805160ff19168380011785556124ac565b828001600101855582156124ac579182015b828111156124ab578251825591602001919060010190612490565b5b5090506124b991906124e6565b5090565b608060405190810160405280606081526020016060815260200160008152602001606081525090565b61250891905b808211156125045760008160009055506001016124ec565b5090565b9056fea165627a7a72305820e3e5dad7b75d09ac83b5309414bc7269a48dcbff6fea8cc696d2f5588b6327fb0029",
  "source": "pragma solidity ^0.5.0;\r\n\r\ncontract CentralStorage {\r\n\r\n    mapping(address => bool) private administrators;\r\n    mapping(address => bool) private validEditors;\r\n    mapping(address => bool) private invalidatedEditors;\r\n    \r\n\r\n    struct File {\r\n        string hash;\r\n        string title;\r\n        uint timestamp;\r\n        string description;\r\n    }\r\n\r\n    struct Publication {\r\n        address editor;\r\n        string title;\r\n        string description;\r\n        string creationHash;\r\n        string category;\r\n        uint timestamp;\r\n    }\r\n    \r\n    mapping(uint => File[]) public files;\r\n\r\n    Publication[] public publications;\r\n\r\n    constructor() public{\r\n        administrators[msg.sender] = true;\r\n        validEditors[msg.sender] = true;\r\n    }\r\n\r\n    event publicationAdded(\r\n        address indexed editor,\r\n        uint timestamp,\r\n        uint id\r\n    );\r\n\r\n    //hash of the initial data send and the user address \r\n    //returns the id of the publication\r\n    function publish(string calldata title, string calldata description, string calldata hash, string calldata category) external editorOnly() returns (uint) {\r\n        \r\n        Publication memory publication;\r\n        publication.title = title;\r\n        publication.description = description;\r\n        publication.editor = msg.sender;\r\n        publication.timestamp = block.timestamp;\r\n        publication.creationHash = hash;\r\n        publication.category = category;\r\n\r\n        publications.push(publication);\r\n\r\n        emit publicationAdded(msg.sender, block.timestamp, publications.length-1);\r\n        return publications.length-1;\r\n    }\r\n\r\n\r\n    function addFiles(uint publicationId, string calldata fileTitle, string calldata fileHash, string calldata description) external editorOnly(){\r\n\r\n        require(publications[publicationId].editor == msg.sender);\r\n\r\n        File memory newFile;\r\n\r\n        newFile.title = fileTitle;\r\n        newFile.hash = fileHash;\r\n        newFile.timestamp = block.timestamp;\r\n        newFile.description = description;\r\n\r\n        files[publicationId].push(newFile);\r\n    }\r\n\r\n    // Returns:\r\n    // 1. the editors address\r\n    // 2. the publication title\r\n    // 3. the publication description\r\n    // 4. the creation hash (hash(description + editor address))\r\n    // 5. the timestamp of the publication\r\n    // 6. the number of files in the publication\r\n    // Note: Use the funtion getFile to get an specific file from the publication\r\n    function getPublication(uint id) view external returns(address, string memory, string memory, string memory, uint, uint,string memory) {\r\n        return (publications[id].editor, publications[id].title, publications[id].description, publications[id].creationHash, publications[id].timestamp, files[id].length, publications[id].category);\r\n    }\r\n\r\n    function getNumberOfPublications() view external returns(uint){\r\n        return publications.length;\r\n    }\r\n\r\n    // Returns:\r\n    // 1. file hash\r\n    // 2. file title\r\n    // 3. tiemstap of the file  \r\n    // 3. description of the file  \r\n    // Note: Use the funtion getPublication to get more info about the publication\r\n    function getFile(uint publicationId, uint fileId) view external returns (string memory, string memory, uint, string memory){\r\n        return (files[publicationId][fileId].hash, files[publicationId][fileId].title, files[publicationId][fileId].timestamp, files[publicationId][fileId].description);\r\n    }\r\n\r\n    function addAdmin(address newAdmin) external adminOnly(){\r\n        administrators[newAdmin] = true;\r\n    }\r\n\r\n    function addEditor(address newEditor) public adminOnly(){\r\n        validEditors[newEditor] = true;\r\n    }\r\n\r\n    function isEditor(address _address) view external returns (bool) {\r\n        return validEditors[_address];\r\n    }\r\n\r\n    function isAdmin(address a) view external returns (bool){\r\n        return (administrators[a]);\r\n    }\r\n\r\n    function invalidateEditor(address editor) external adminOnly {\r\n        validEditors[editor] = false;\r\n        invalidatedEditors[editor] = true;\r\n    }\r\n\r\n    modifier adminOnly() {\r\n        require(administrators[msg.sender], \"There is no authorization to access this resource.\");\r\n        _;\r\n    }\r\n\r\n    modifier editorOnly() {\r\n        require(validEditors[msg.sender], \"There is no authorization to access this resource.\");\r\n        _;\r\n    }    \r\n}\r\n",
  "sourcePath": "E:/2022-1/Proyecto de grado/Frontend/blockchain_library/src/contracts/CentralStorage.sol",
  "compiler": {
    "name": "solc",
    "version": "0.5.0+commit.1d4f565a.Emscripten.clang"
  },
  "schemaVersion": "3.0.2",
  "updatedAt": "2022-06-04T06:47:23.549Z",
  "devdoc": {
    "methods": {}
  },
  "userdoc": {
    "methods": {}
  }
}